:020000040800F2
:1000000000200020550D00083108000833080008C2
:1000100000000000000000000000000000000000E0
:10002000000000000000000000000000350800088B
:100030000000000000000000370800083908000830
:10004000A50D0008A50D0008A50D0008A50D0008C8
:10005000A50D0008A50D0008A50D0008A50D0008B8
:10006000A50D0008A50D0008A50D0008A50D0008A8
:10007000A50D0008A50D0008A50D0008A50D000898
:10008000A50D0008A50D000800000000A50D000842
:10009000A50D0008D5060008A50D0008A50D00084F
:1000A000A50D0008A50D0008A50D0008A50D000868
:1000B000A50D000800000000A50D000800000000CC
:1000C00010B5064C2378002B07D1054B002B02D02E
:1000D000044800E000BF0123237010BD1C00002075
:1000E00000000000000E0008044B10B5002B03D0E8
:1000F0000349044800E000BF10BDC04600000000F6
:1001000020000020000E0008002243088B4274D318
:1001100003098B425FD3030A8B4244D3030B8B4208
:1001200028D3030C8B420DD3FF22090212BA030C11
:100130008B4202D31212090265D0030B8B4219D3F2
:1001400000E0090AC30B8B4201D3CB03C01A524112
:10015000830B8B4201D38B03C01A5241430B8B425A
:1001600001D34B03C01A5241030B8B4201D30B0343
:10017000C01A5241C30A8B4201D3CB02C01A52416A
:10018000830A8B4201D38B02C01A5241430A8B422D
:1001900001D34B02C01A5241030A8B4201D30B0216
:1001A000C01A5241CDD2C3098B4201D3CB01C01A30
:1001B000524183098B4201D38B01C01A524143093A
:1001C0008B4201D34B01C01A524103098B4201D328
:1001D0000B01C01A5241C3088B4201D3CB00C01A95
:1001E000524183088B4201D38B00C01A524143080D
:1001F0008B4201D34B00C01A5241411A00D2014632
:10020000524110467047FFE701B5002000F006F8A4
:1002100002BDC0460029F7D076E770477047C04658
:100220000B4B1B78002B0DD00A4B1B685B08012B76
:100230000BD909490A68013B9BB2D362CB6000230A
:1002400053627047034B1B68F1E70223F1E7C04696
:100250003A0000200800002040000020C30727D5F6
:10026000234B01229A61830726D5214B02229A61F2
:10027000430725D51E4B04229A61030724D51C4B46
:1002800008229A61C30623D5194B10229A6183066E
:1002900022D5174B20229A61430621D5144B4022C8
:1002A0009A6140B200281FDB114B80229A6270478E
:1002B0000F4B01229A62D6E70D4B02229A62D7E7D2
:1002C0000B4B04229A62D8E7094B08229A62D9E7BD
:1002D000074B10229A62DAE7054B20229A62DBE78D
:1002E000034B40229A62DCE7014B80229A61DEE7F1
:1002F00000040048F0B5DE4657464E464546E0B598
:100300008BB01822002104A800F04DFD414B5A6922
:100310008021C9030A435A615A690A400392039A29
:100320005A69802189020A435A615A690A40029235
:10033000029A5A698021C9020A435A615B690B40DB
:100340000193019B344C0125A56202239946A362C7
:1003500002339846A3620827A7620C339B46A36228
:1003600010339A46A3622033A3628022A2620495CE
:1003700008959026F60504A9300000F062FA494677
:10038000049104A9300000F05CFA4146049104A9EC
:10039000300000F056FA049704A9300000F051FA3A
:1003A00005950023069307930893049504A920005C
:1003B00000F047FA4946049104A9200000F041FAF0
:1003C0004146049104A9200000F03BFA049704A9D7
:1003D000200000F036FA5946049104A9200000F0EC
:1003E00030FA5146049104A9200000F02AFA402373
:1003F000049304A9200000F024FA8022049204A9A6
:10040000200000F01EFA0BB0F0BCBB46B246A94675
:10041000A046F0BD001002400004004870B502681C
:100420009E4B9A4200D070BD9023DB051B699B0751
:100430003FD501269023DB051B695B073BD50125D2
:100440009023DB051B691B0737D50124944B1B78D0
:10045000012B34D0934B1B78012B3DD0924B1B7852
:10046000012B47D08E4B1E708E4B1D708E4B1C7017
:100470008E4B1B78DAB2022B5CD0032A00D189E0C4
:10048000012AD0D18A4B1B78DBB201209840C0B240
:10049000FFF7E4FE874B1B785BB2002B3ADD844B01
:1004A0001B78072B2FD0824A13780133DBB21370ED
:1004B000B9E70026BEE70025C2E70024C6E7002E04
:1004C000C8D17A4B01221A70794B00211970794BEF
:1004D0001A70FFF7A5FEBDE7002DBFD1734B0222B6
:1004E0001A70734B00221A70724B01321A70FFF7A8
:1004F00097FEB3E7002CB5D16C4B03221A706E4BFC
:1005000000221A70AEE76B4BFF221A70684BF93A63
:100510001A7088E7664B1B78002B05D1654B0122CA
:100520001A70634B1A707EE7614A1378013BDBB2A5
:10053000137078E75E4B1B78DBB201209840C0B2A5
:10054000C043C0B2FFF78AFE5A4B1B785BB2002B48
:1005500010DD574B1B78072B05D0554A1378013314
:10056000DBB213705FE7534BFF221A70504BF93A1E
:100570001A7058E74E4B1B78002B05D14D4B0122CA
:100580001A704B4B1A704EE7494A1378013BDBB2A5
:10059000137048E7484B1B78002B20D0474B1B7843
:1005A000002B6ED1464B1A6846485043464A944643
:1005B00060441860000E6421FFF72CFEC9B20131BF
:1005C0000B1C012900D802239BB240490A68013B59
:1005D000D362CB6000235362374A137023E7384D50
:1005E0002B68384C6343384A944663442B601B0E97
:1005F000324A13701078C0B2FFF730FE2B685C43AC
:10060000314BE0182860000E3149FFF703FE8BB232
:1006100064339BB21A1C012B00D8022293B22B49DF
:100620000A68013BD362CB6000235362224B012254
:100630001A70F8E6012393401A0020490B7893437F
:100640000B701E4B1878C0B2FFF708FE1C4B1A68DF
:100650001C4850431C4A944660441860000E6421B4
:10066000FFF7D8FDC9B201310B1C012900D80223C4
:100670009BB216490A68013BD362CB6000235362E8
:10068000D1E60022072ADCD80C4B1B78DBB2D34022
:10069000DB07CFD40132D2B2F4E7C04600440140B8
:1006A0000600002005000020040000203C0000207F
:1006B0003B0000200C000020390000203800002002
:1006C000000000200D6619005FF36E3C4000002022
:1006D0007905000010B5024800F0E2F910BDC046EF
:1006E0004000002072B6FEE710B50C480C4B0360CA
:1006F0000C4B4360002383600B4AC260036143617B
:100700008033836100F0C4FA002804D1074B8022B3
:1007100092031A6010BDFFF7E5FFC04640000020BD
:10072000004401403F1F0000E703000000E100E03B
:1007300010B51A4A136801218B431360174B1B68CD
:10074000DB07FBD4164A136801210B431360144BDB
:100750001B689B07FBD5124B1A68F8218A4378392E
:100760000A431A605A6870318A435A605A680D49C0
:100770000A405A605A6803218A435A60084B5B68F2
:100780000C221A42FAD1084800F0DEFA032000F0E9
:10079000B5F8002800D110BDFFF7A4FF00200240EB
:1007A00000100240FFF8FFFF00127A0010B500F0C1
:1007B000CDF8FFF7BDFFFFF79DFDFFF795FF002088
:1007C000FFF74CFD1548C3680133154A136000F06C
:1007D0002DF9FFF725FD06E00024124B1B78012BB5
:1007E00008D0104B1C709023DB051B69DB07F3D589
:1007F0000124F2E7002CF4D10B4A137801214B407D
:10080000DBB21370094B1B78012B03D0074B1B780D
:10081000022BE6D1FFF704FDE3E7C04640000020CD
:1008200008000020070000203A0000203C000020C3
:10083000FEE7FEE77047704710B500F097F810BD6F
:100840007047F0B5002216E00B699C46C4682B0087
:100850006B435E00F618F743B44366465E43344389
:10086000C4604C68022C26D04D6804683C406B4341
:100870002343036001320C682300D3403BD00123A3
:10088000934025001D401C42F4D04B68013B012BD6
:10089000DAD88F6883682C006C4366003619B3433E
:1008A0007C43234383600E68CC684368B34374433E
:1008B00023434360C8E7FF2D0DD84C69A446066A60
:1008C0001C006C436C4325012D1BAE4365466C43F5
:1008D00034430462C8E74C69A446466A2D0A2C00DA
:1008E0006C436C436C4325012D1BAE4365466C4342
:1008F00034434462B8E70020F0BD000010B50400A6
:100900000F4B1978FA208000FFF7FEFB01000D4B1A
:100910001868FFF7F9FB00F085F800280DD1032CCB
:1009200001D901200AE0013000222100404200F0FC
:1009300075F8054B1C60002000E0012010BDC0468A
:1009400014000020100000201800002010B5064AF6
:10095000136810210B4313600320FFF7CFFF00F053
:10096000C5F9002010BDC04600200240034A1168AE
:10097000034B1B785B1813607047C046880000204B
:100980001400002070B5002811DB8308134DC0331C
:100990009B005C5903221040C000FC3216008640C8
:1009A000B44389010A40824022435A5170BD0F234B
:1009B0000340083B9B0806339B00094A9446634466
:1009C0005C6803221040C000FC3215008540AC4337
:1009D00089010A40824022435A60E7E700E100E0D3
:1009E00000ED00E0013880235B0498420FD2094AF1
:1009F00050600948036A1B021B0AC02109060B4309
:100A000003620023936007331360002070470120C6
:100A1000FCE7C04610E000E000ED00E010B5FFF795
:100A2000B1FF10BD10B5FFF7DDFF10BD3D23C35C66
:100A3000012B26D13C330222C2540268D368012123
:100A40000B43D3600368114A93420FD08022D20532
:100A500093420BD00E4A934208D00E4A934205D0DF
:100A60001A6801210A431A6000200BE099680722E6
:100A70000A40062A07D01A6801210A431A6000209A
:100A800000E0012070470020FCE7C046002C014038
:100A900000040040004001407047704770477047B5
:100AA00070B504000368DE681D69AA070ED5B20799
:100AB0000CD5032252421A610123037703689B6914
:100AC0009B0751D0FFF7E9FF002323776B0712D56F
:100AD000730710D52368052252421A610223237737
:100AE00023689A69C0239B001A4243D02000FFF775
:100AF000D4FF002323772B0710D533070ED52368A7
:100B0000092252421A61042323772368DB699B0779
:100B100037D02000FFF7C1FF00232377EB0612D563
:100B2000F30610D52368112252421A610823237755
:100B30002368DA69C0239B001A4229D02000FFF7FE
:100B4000ACFF00232377EB0701D5F30727D42B064F
:100B500001D533062BD46B0601D573062FD4AD0611
:100B600001D5B60633D470BDFFF796FF2000FFF71E
:100B700095FFA9E72000FFF78FFF2000FFF78EFF0A
:100B8000B7E72000FFF788FF2000FFF787FFC3E7E4
:100B90002000FFF781FF2000FFF780FFD1E72368E7
:100BA000022252421A612000FFF738FCCFE7236887
:100BB000812252421A61200000F097F8CBE72368A7
:100BC000412252421A612000FFF769FFC7E72368FC
:100BD000212252421A61200000F086F8C3E700008B
:100BE0000368244A904206D08022D205904202D067
:100BF000214A904203D1702293434A6813431D4A0D
:100C0000904212D08022D20590420ED01A4A9042D1
:100C10000BD01A4A904208D0194A904205D0194A7E
:100C2000904202D0184A904203D1184A1A40CB6829
:100C30001343802293434A69134303608B68C36262
:100C40000B6883620B4B984208D00D4B984205D03D
:100C50000C4B984202D00C4B984201D10B690363B4
:100C6000012343610269134203D0036901229343C4
:100C700003617047002C0140000400400020004048
:100C8000004001400044014000480140FFFCFFFFDC
:100C900070B5041E26D03D23C35C002B1CD03D251F
:100CA00002236355210001C9FFF79AFF0123462261
:100CB000A354083AA3540132A3540132A35401327D
:100CC000A3540132A3540132A3540132A35401327C
:100CD000A3546355002070BD3C330022C25400F081
:100CE0001DF8DCE70120F6E77047704782B00A4B39
:100CF000996901221143996199690A400092009A09
:100D0000DA69802149050A43DA61DB690B40019306
:100D1000019B02B07047C0460010024082B00268DA
:100D2000074B9A4201D002B07047064B9A69802166
:100D300089020A439A619B690B400193019BF2E788
:100D40000044014000100240014B18607047C0464B
:100D5000100000200D488546FFF772FD0C480D4934
:100D60000D4A002302E0D458C4500433C4188C4206
:100D7000F9D30A4A0A4C002301E013600432A2426C
:100D8000FBD300F019F8FFF711FDFEE7002000206B
:100D9000000000201C000020200E00081C00002085
:100DA0008C000020FEE703008218934200D17047B8
:100DB00019700133F9E7000070B500260C4C0D4D99
:100DC000641BA410A64209D1002600F019F80A4CB1
:100DD0000A4D641BA410A64205D170BDB300EB58A8
:100DE00098470136EEE7B300EB5898470136F2E733
:100DF000180E0008180E00081C0E0008180E000837
:100E0000F8B5C046F8BC08BC9E467047F8B5C04669
:080E1000F8BC08BC9E467047C7
:040E1800E9000008E5
:040E1C00C100000809
:100E2000EEFFC00001010101E80300000100000025
:0C0E300000127A00010000000400000025
:0400000508000D558D
:00000001FF
